{"contracts/Token.sol":{"Token":{"abi":[{"inputs":[{"internalType":"address","name":"","type":"address"}],"name":"balance","outputs":[{"internalType":"uint256","name":"","type":"uint256"}],"stateMutability":"view","type":"function"},{"inputs":[],"name":"deposit","outputs":[],"stateMutability":"payable","type":"function"},{"inputs":[],"name":"reentrancyLock","outputs":[{"internalType":"bool","name":"","type":"bool"}],"stateMutability":"view","type":"function"},{"inputs":[],"name":"withdraw","outputs":[],"stateMutability":"payable","type":"function"}],"evm":{"bytecode":{"linkReferences":{},"object":"608060405234801561001057600080fd5b50610441806100206000396000f3fe60806040526004361061003f5760003560e01c80632446d79f146100445780633ccfd60b1461006f578063d0e30db014610079578063e3d670d714610083575b600080fd5b34801561005057600080fd5b506100596100c0565b6040516100669190610295565b60405180910390f35b6100776100d3565b005b6100816101bc565b005b34801561008f57600080fd5b506100aa60048036038101906100a59190610313565b610262565b6040516100b79190610359565b60405180910390f35b600160009054906101000a900460ff1681565b346000803373ffffffffffffffffffffffffffffffffffffffff1673ffffffffffffffffffffffffffffffffffffffff16815260200190815260200160002054101561011e57600080fd5b3373ffffffffffffffffffffffffffffffffffffffff166108fc349081150290604051600060405180830381858888f19350505050158015610164573d6000803e3d6000fd5b50346000803373ffffffffffffffffffffffffffffffffffffffff1673ffffffffffffffffffffffffffffffffffffffff16815260200190815260200160002060008282546101b391906103a3565b92505081905550565b600160009054906101000a900460ff16156101d657600080fd5b60018060006101000a81548160ff021916908315150217905550346000803373ffffffffffffffffffffffffffffffffffffffff1673ffffffffffffffffffffffffffffffffffffffff168152602001908152602001600020600082825461023e91906103d7565b925050819055506000600160006101000a81548160ff021916908315150217905550565b60006020528060005260406000206000915090505481565b60008115159050919050565b61028f8161027a565b82525050565b60006020820190506102aa6000830184610286565b92915050565b600080fd5b600073ffffffffffffffffffffffffffffffffffffffff82169050919050565b60006102e0826102b5565b9050919050565b6102f0816102d5565b81146102fb57600080fd5b50565b60008135905061030d816102e7565b92915050565b600060208284031215610329576103286102b0565b5b6000610337848285016102fe565b91505092915050565b6000819050919050565b61035381610340565b82525050565b600060208201905061036e600083018461034a565b92915050565b7f4e487b7100000000000000000000000000000000000000000000000000000000600052601160045260246000fd5b60006103ae82610340565b91506103b983610340565b92508282039050818111156103d1576103d0610374565b5b92915050565b60006103e282610340565b91506103ed83610340565b925082820190508082111561040557610404610374565b5b9291505056fea2646970667358221220eb055ffbfa92efbb97e2ece55e2c138288511ec743dff66efeb41f923c115a9f64736f6c63430008130033","opcodes":"PUSH1 0x80 PUSH1 0x40 MSTORE CALLVALUE DUP1 ISZERO PUSH2 0x10 JUMPI PUSH1 0x0 DUP1 REVERT JUMPDEST POP PUSH2 0x441 DUP1 PUSH2 0x20 PUSH1 0x0 CODECOPY PUSH1 0x0 RETURN INVALID PUSH1 0x80 PUSH1 0x40 MSTORE PUSH1 0x4 CALLDATASIZE LT PUSH2 0x3F JUMPI PUSH1 0x0 CALLDATALOAD PUSH1 0xE0 SHR DUP1 PUSH4 0x2446D79F EQ PUSH2 0x44 JUMPI DUP1 PUSH4 0x3CCFD60B EQ PUSH2 0x6F JUMPI DUP1 PUSH4 0xD0E30DB0 EQ PUSH2 0x79 JUMPI DUP1 PUSH4 0xE3D670D7 EQ PUSH2 0x83 JUMPI JUMPDEST PUSH1 0x0 DUP1 REVERT JUMPDEST CALLVALUE DUP1 ISZERO PUSH2 0x50 JUMPI PUSH1 0x0 DUP1 REVERT JUMPDEST POP PUSH2 0x59 PUSH2 0xC0 JUMP JUMPDEST PUSH1 0x40 MLOAD PUSH2 0x66 SWAP2 SWAP1 PUSH2 0x295 JUMP JUMPDEST PUSH1 0x40 MLOAD DUP1 SWAP2 SUB SWAP1 RETURN JUMPDEST PUSH2 0x77 PUSH2 0xD3 JUMP JUMPDEST STOP JUMPDEST PUSH2 0x81 PUSH2 0x1BC JUMP JUMPDEST STOP JUMPDEST CALLVALUE DUP1 ISZERO PUSH2 0x8F JUMPI PUSH1 0x0 DUP1 REVERT JUMPDEST POP PUSH2 0xAA PUSH1 0x4 DUP1 CALLDATASIZE SUB DUP2 ADD SWAP1 PUSH2 0xA5 SWAP2 SWAP1 PUSH2 0x313 JUMP JUMPDEST PUSH2 0x262 JUMP JUMPDEST PUSH1 0x40 MLOAD PUSH2 0xB7 SWAP2 SWAP1 PUSH2 0x359 JUMP JUMPDEST PUSH1 0x40 MLOAD DUP1 SWAP2 SUB SWAP1 RETURN JUMPDEST PUSH1 0x1 PUSH1 0x0 SWAP1 SLOAD SWAP1 PUSH2 0x100 EXP SWAP1 DIV PUSH1 0xFF AND DUP2 JUMP JUMPDEST CALLVALUE PUSH1 0x0 DUP1 CALLER PUSH20 0xFFFFFFFFFFFFFFFFFFFFFFFFFFFFFFFFFFFFFFFF AND PUSH20 0xFFFFFFFFFFFFFFFFFFFFFFFFFFFFFFFFFFFFFFFF AND DUP2 MSTORE PUSH1 0x20 ADD SWAP1 DUP2 MSTORE PUSH1 0x20 ADD PUSH1 0x0 KECCAK256 SLOAD LT ISZERO PUSH2 0x11E JUMPI PUSH1 0x0 DUP1 REVERT JUMPDEST CALLER PUSH20 0xFFFFFFFFFFFFFFFFFFFFFFFFFFFFFFFFFFFFFFFF AND PUSH2 0x8FC CALLVALUE SWAP1 DUP2 ISZERO MUL SWAP1 PUSH1 0x40 MLOAD PUSH1 0x0 PUSH1 0x40 MLOAD DUP1 DUP4 SUB DUP2 DUP6 DUP9 DUP9 CALL SWAP4 POP POP POP POP ISZERO DUP1 ISZERO PUSH2 0x164 JUMPI RETURNDATASIZE PUSH1 0x0 DUP1 RETURNDATACOPY RETURNDATASIZE PUSH1 0x0 REVERT JUMPDEST POP CALLVALUE PUSH1 0x0 DUP1 CALLER PUSH20 0xFFFFFFFFFFFFFFFFFFFFFFFFFFFFFFFFFFFFFFFF AND PUSH20 0xFFFFFFFFFFFFFFFFFFFFFFFFFFFFFFFFFFFFFFFF AND DUP2 MSTORE PUSH1 0x20 ADD SWAP1 DUP2 MSTORE PUSH1 0x20 ADD PUSH1 0x0 KECCAK256 PUSH1 0x0 DUP3 DUP3 SLOAD PUSH2 0x1B3 SWAP2 SWAP1 PUSH2 0x3A3 JUMP JUMPDEST SWAP3 POP POP DUP2 SWAP1 SSTORE POP JUMP JUMPDEST PUSH1 0x1 PUSH1 0x0 SWAP1 SLOAD SWAP1 PUSH2 0x100 EXP SWAP1 DIV PUSH1 0xFF AND ISZERO PUSH2 0x1D6 JUMPI PUSH1 0x0 DUP1 REVERT JUMPDEST PUSH1 0x1 DUP1 PUSH1 0x0 PUSH2 0x100 EXP DUP2 SLOAD DUP2 PUSH1 0xFF MUL NOT AND SWAP1 DUP4 ISZERO ISZERO MUL OR SWAP1 SSTORE POP CALLVALUE PUSH1 0x0 DUP1 CALLER PUSH20 0xFFFFFFFFFFFFFFFFFFFFFFFFFFFFFFFFFFFFFFFF AND PUSH20 0xFFFFFFFFFFFFFFFFFFFFFFFFFFFFFFFFFFFFFFFF AND DUP2 MSTORE PUSH1 0x20 ADD SWAP1 DUP2 MSTORE PUSH1 0x20 ADD PUSH1 0x0 KECCAK256 PUSH1 0x0 DUP3 DUP3 SLOAD PUSH2 0x23E SWAP2 SWAP1 PUSH2 0x3D7 JUMP JUMPDEST SWAP3 POP POP DUP2 SWAP1 SSTORE POP PUSH1 0x0 PUSH1 0x1 PUSH1 0x0 PUSH2 0x100 EXP DUP2 SLOAD DUP2 PUSH1 0xFF MUL NOT AND SWAP1 DUP4 ISZERO ISZERO MUL OR SWAP1 SSTORE POP JUMP JUMPDEST PUSH1 0x0 PUSH1 0x20 MSTORE DUP1 PUSH1 0x0 MSTORE PUSH1 0x40 PUSH1 0x0 KECCAK256 PUSH1 0x0 SWAP2 POP SWAP1 POP SLOAD DUP2 JUMP JUMPDEST PUSH1 0x0 DUP2 ISZERO ISZERO SWAP1 POP SWAP2 SWAP1 POP JUMP JUMPDEST PUSH2 0x28F DUP2 PUSH2 0x27A JUMP JUMPDEST DUP3 MSTORE POP POP JUMP JUMPDEST PUSH1 0x0 PUSH1 0x20 DUP3 ADD SWAP1 POP PUSH2 0x2AA PUSH1 0x0 DUP4 ADD DUP5 PUSH2 0x286 JUMP JUMPDEST SWAP3 SWAP2 POP POP JUMP JUMPDEST PUSH1 0x0 DUP1 REVERT JUMPDEST PUSH1 0x0 PUSH20 0xFFFFFFFFFFFFFFFFFFFFFFFFFFFFFFFFFFFFFFFF DUP3 AND SWAP1 POP SWAP2 SWAP1 POP JUMP JUMPDEST PUSH1 0x0 PUSH2 0x2E0 DUP3 PUSH2 0x2B5 JUMP JUMPDEST SWAP1 POP SWAP2 SWAP1 POP JUMP JUMPDEST PUSH2 0x2F0 DUP2 PUSH2 0x2D5 JUMP JUMPDEST DUP2 EQ PUSH2 0x2FB JUMPI PUSH1 0x0 DUP1 REVERT JUMPDEST POP JUMP JUMPDEST PUSH1 0x0 DUP2 CALLDATALOAD SWAP1 POP PUSH2 0x30D DUP2 PUSH2 0x2E7 JUMP JUMPDEST SWAP3 SWAP2 POP POP JUMP JUMPDEST PUSH1 0x0 PUSH1 0x20 DUP3 DUP5 SUB SLT ISZERO PUSH2 0x329 JUMPI PUSH2 0x328 PUSH2 0x2B0 JUMP JUMPDEST JUMPDEST PUSH1 0x0 PUSH2 0x337 DUP5 DUP3 DUP6 ADD PUSH2 0x2FE JUMP JUMPDEST SWAP2 POP POP SWAP3 SWAP2 POP POP JUMP JUMPDEST PUSH1 0x0 DUP2 SWAP1 POP SWAP2 SWAP1 POP JUMP JUMPDEST PUSH2 0x353 DUP2 PUSH2 0x340 JUMP JUMPDEST DUP3 MSTORE POP POP JUMP JUMPDEST PUSH1 0x0 PUSH1 0x20 DUP3 ADD SWAP1 POP PUSH2 0x36E PUSH1 0x0 DUP4 ADD DUP5 PUSH2 0x34A JUMP JUMPDEST SWAP3 SWAP2 POP POP JUMP JUMPDEST PUSH32 0x4E487B7100000000000000000000000000000000000000000000000000000000 PUSH1 0x0 MSTORE PUSH1 0x11 PUSH1 0x4 MSTORE PUSH1 0x24 PUSH1 0x0 REVERT JUMPDEST PUSH1 0x0 PUSH2 0x3AE DUP3 PUSH2 0x340 JUMP JUMPDEST SWAP2 POP PUSH2 0x3B9 DUP4 PUSH2 0x340 JUMP JUMPDEST SWAP3 POP DUP3 DUP3 SUB SWAP1 POP DUP2 DUP2 GT ISZERO PUSH2 0x3D1 JUMPI PUSH2 0x3D0 PUSH2 0x374 JUMP JUMPDEST JUMPDEST SWAP3 SWAP2 POP POP JUMP JUMPDEST PUSH1 0x0 PUSH2 0x3E2 DUP3 PUSH2 0x340 JUMP JUMPDEST SWAP2 POP PUSH2 0x3ED DUP4 PUSH2 0x340 JUMP JUMPDEST SWAP3 POP DUP3 DUP3 ADD SWAP1 POP DUP1 DUP3 GT ISZERO PUSH2 0x405 JUMPI PUSH2 0x404 PUSH2 0x374 JUMP JUMPDEST JUMPDEST SWAP3 SWAP2 POP POP JUMP INVALID LOG2 PUSH5 0x6970667358 0x22 SLT KECCAK256 0xEB SDIV 0x5F 0xFB STATICCALL SWAP3 0xEF 0xBB SWAP8 0xE2 0xEC 0xE5 0x5E 0x2C SGT DUP3 DUP9 MLOAD 0x1E 0xC7 NUMBER 0xDF 0xF6 PUSH15 0xFEB41F923C115A9F64736F6C634300 ADDMOD SGT STOP CALLER "},"methodIdentifiers":{"balance(address)":"e3d670d7","deposit()":"d0e30db0","reentrancyLock()":"2446d79f","withdraw()":"3ccfd60b"}}}}}