{
  "_format": "hh-sol-artifact-1",
  "contractName": "Bank",
  "sourceName": "contracts/Token.sol",
  "abi": [
    {
      "anonymous": false,
      "inputs": [
        {
          "indexed": false,
          "internalType": "address",
          "name": "account",
          "type": "address"
        },
        {
          "indexed": false,
          "internalType": "string",
          "name": "message",
          "type": "string"
        },
        {
          "indexed": false,
          "internalType": "string",
          "name": "Type",
          "type": "string"
        },
        {
          "indexed": false,
          "internalType": "uint256",
          "name": "value",
          "type": "uint256"
        }
      ],
      "name": "EMIPaid",
      "type": "event"
    },
    {
      "anonymous": false,
      "inputs": [
        {
          "indexed": false,
          "internalType": "address",
          "name": "sender",
          "type": "address"
        },
        {
          "indexed": false,
          "internalType": "string",
          "name": "message",
          "type": "string"
        },
        {
          "indexed": false,
          "internalType": "uint256",
          "name": "value",
          "type": "uint256"
        }
      ],
      "name": "amountDeposited",
      "type": "event"
    },
    {
      "anonymous": false,
      "inputs": [
        {
          "indexed": false,
          "internalType": "address",
          "name": "sender",
          "type": "address"
        },
        {
          "indexed": false,
          "internalType": "string",
          "name": "message",
          "type": "string"
        },
        {
          "indexed": false,
          "internalType": "uint256",
          "name": "value",
          "type": "uint256"
        }
      ],
      "name": "amountWithdrawn",
      "type": "event"
    },
    {
      "anonymous": false,
      "inputs": [
        {
          "indexed": false,
          "internalType": "address",
          "name": "account",
          "type": "address"
        },
        {
          "indexed": false,
          "internalType": "string",
          "name": "message",
          "type": "string"
        },
        {
          "indexed": false,
          "internalType": "uint256",
          "name": "value",
          "type": "uint256"
        },
        {
          "indexed": false,
          "internalType": "uint256",
          "name": "forTime",
          "type": "uint256"
        }
      ],
      "name": "carLoanProcessed",
      "type": "event"
    },
    {
      "anonymous": false,
      "inputs": [
        {
          "indexed": false,
          "internalType": "address",
          "name": "account",
          "type": "address"
        },
        {
          "indexed": false,
          "internalType": "string",
          "name": "message",
          "type": "string"
        },
        {
          "indexed": false,
          "internalType": "uint256",
          "name": "value",
          "type": "uint256"
        },
        {
          "indexed": false,
          "internalType": "uint256",
          "name": "forTime",
          "type": "uint256"
        }
      ],
      "name": "homeLoanProcessed",
      "type": "event"
    },
    {
      "anonymous": false,
      "inputs": [
        {
          "indexed": false,
          "internalType": "address",
          "name": "account",
          "type": "address"
        },
        {
          "indexed": false,
          "internalType": "string",
          "name": "message",
          "type": "string"
        },
        {
          "indexed": false,
          "internalType": "uint256",
          "name": "value",
          "type": "uint256"
        },
        {
          "indexed": false,
          "internalType": "uint256",
          "name": "forTime",
          "type": "uint256"
        }
      ],
      "name": "personalLoanProcessed",
      "type": "event"
    },
    {
      "inputs": [],
      "name": "AddLoanLimit",
      "outputs": [],
      "stateMutability": "payable",
      "type": "function"
    },
    {
      "inputs": [
        {
          "internalType": "address",
          "name": "",
          "type": "address"
        }
      ],
      "name": "UserAddress",
      "outputs": [
        {
          "internalType": "uint256",
          "name": "amountDeposited",
          "type": "uint256"
        },
        {
          "internalType": "uint256",
          "name": "timeStamp",
          "type": "uint256"
        }
      ],
      "stateMutability": "view",
      "type": "function"
    },
    {
      "inputs": [],
      "name": "deposit",
      "outputs": [],
      "stateMutability": "payable",
      "type": "function"
    },
    {
      "inputs": [
        {
          "internalType": "uint256",
          "name": "loanAmount",
          "type": "uint256"
        },
        {
          "internalType": "uint256",
          "name": "timeInMonths",
          "type": "uint256"
        }
      ],
      "name": "getCarLoan",
      "outputs": [],
      "stateMutability": "payable",
      "type": "function"
    },
    {
      "inputs": [],
      "name": "getCarLoanDetails",
      "outputs": [
        {
          "internalType": "string",
          "name": "Type",
          "type": "string"
        },
        {
          "internalType": "uint256",
          "name": "loanAmount",
          "type": "uint256"
        },
        {
          "internalType": "uint256",
          "name": "noOfEmiPending",
          "type": "uint256"
        },
        {
          "internalType": "uint256",
          "name": "EmiAmount",
          "type": "uint256"
        }
      ],
      "stateMutability": "view",
      "type": "function"
    },
    {
      "inputs": [
        {
          "internalType": "uint256",
          "name": "loanAmount",
          "type": "uint256"
        },
        {
          "internalType": "uint256",
          "name": "timeInMonths",
          "type": "uint256"
        }
      ],
      "name": "getHomeLoan",
      "outputs": [],
      "stateMutability": "payable",
      "type": "function"
    },
    {
      "inputs": [],
      "name": "getHomeLoanDetails",
      "outputs": [
        {
          "internalType": "string",
          "name": "Type",
          "type": "string"
        },
        {
          "internalType": "uint256",
          "name": "loanAmount",
          "type": "uint256"
        },
        {
          "internalType": "uint256",
          "name": "noOfEmiPending",
          "type": "uint256"
        },
        {
          "internalType": "uint256",
          "name": "EmiAmount",
          "type": "uint256"
        }
      ],
      "stateMutability": "view",
      "type": "function"
    },
    {
      "inputs": [
        {
          "internalType": "uint256",
          "name": "loanAmount",
          "type": "uint256"
        },
        {
          "internalType": "uint256",
          "name": "timeInMonths",
          "type": "uint256"
        }
      ],
      "name": "getPersonalLoan",
      "outputs": [],
      "stateMutability": "payable",
      "type": "function"
    },
    {
      "inputs": [],
      "name": "getPersonalLoanDetails",
      "outputs": [
        {
          "internalType": "string",
          "name": "Type",
          "type": "string"
        },
        {
          "internalType": "uint256",
          "name": "loanAmount",
          "type": "uint256"
        },
        {
          "internalType": "uint256",
          "name": "noOfEmiPending",
          "type": "uint256"
        },
        {
          "internalType": "uint256",
          "name": "EmiAmount",
          "type": "uint256"
        }
      ],
      "stateMutability": "view",
      "type": "function"
    },
    {
      "inputs": [],
      "name": "getTotalBankBalance",
      "outputs": [
        {
          "internalType": "uint256",
          "name": "",
          "type": "uint256"
        }
      ],
      "stateMutability": "view",
      "type": "function"
    },
    {
      "inputs": [],
      "name": "loanLimit",
      "outputs": [
        {
          "internalType": "uint256",
          "name": "",
          "type": "uint256"
        }
      ],
      "stateMutability": "view",
      "type": "function"
    },
    {
      "inputs": [
        {
          "internalType": "string",
          "name": "Type",
          "type": "string"
        }
      ],
      "name": "payEMI",
      "outputs": [],
      "stateMutability": "payable",
      "type": "function"
    },
    {
      "inputs": [
        {
          "internalType": "uint256",
          "name": "amount",
          "type": "uint256"
        }
      ],
      "name": "withdraw",
      "outputs": [],
      "stateMutability": "nonpayable",
      "type": "function"
    }
  ],
  "bytecode": "0x608060405234801561001057600080fd5b50612d42806100206000396000f3fe6080604052600436106100c25760003560e01c8063ad81fced1161007f578063b9ccbfae11610059578063b9ccbfae14610234578063d0e30db01461023e578063edda501214610248578063fb7a3bdf14610276576100c2565b8063ad81fced146101ad578063af105ba7146101d8578063b620740214610206576100c2565b80630696d74a146100c75780632e1a7d4d146100e357806338a2ca401461010c5780634b674096146101375780635415cf03146101535780638dd09d0b1461016f575b600080fd5b6100e160048036038101906100dc9190611aa1565b610292565b005b3480156100ef57600080fd5b5061010a60048036038101906101059190611ae1565b61055d565b005b34801561011857600080fd5b506101216107e0565b60405161012e9190611b1d565b60405180910390f35b610151600480360381019061014c9190611aa1565b6107e8565b005b61016d60048036038101906101689190611aa1565b610ab3565b005b34801561017b57600080fd5b5061019660048036038101906101919190611b96565b610d7e565b6040516101a4929190611bc3565b60405180910390f35b3480156101b957600080fd5b506101c2610da2565b6040516101cf9190611b1d565b60405180910390f35b3480156101e457600080fd5b506101ed610da8565b6040516101fd9493929190611c7c565b60405180910390f35b34801561021257600080fd5b5061021b610e01565b60405161022b9493929190611c7c565b60405180910390f35b61023c610e5a565b005b610246610eb7565b005b34801561025457600080fd5b5061025d610fd5565b60405161026d9493929190611c7c565b60405180910390f35b610290600480360381019061028b9190611dfd565b61102e565b005b61029d338383611668565b5060006014905060006102b182858561179b565b90506040518060400160405280600881526020017f506572736f6e616c00000000000000000000000000000000000000000000000081525060026040516102f790611e9d565b908152602001604051809103902060003373ffffffffffffffffffffffffffffffffffffffff1673ffffffffffffffffffffffffffffffffffffffff168152602001908152602001600020600001908161035191906120be565b5080600260405161036190611e9d565b908152602001604051809103902060003373ffffffffffffffffffffffffffffffffffffffff1673ffffffffffffffffffffffffffffffffffffffff16815260200190815260200160002060030160008282546103be91906121bf565b925050819055508260026040516103d490611e9d565b908152602001604051809103902060003373ffffffffffffffffffffffffffffffffffffffff1673ffffffffffffffffffffffffffffffffffffffff168152602001908152602001600020600201600082825461043191906121bf565b9250508190555083600260405161044790611e9d565b908152602001604051809103902060003373ffffffffffffffffffffffffffffffffffffffff1673ffffffffffffffffffffffffffffffffffffffff16815260200190815260200160002060010160008282546104a491906121bf565b9250508190555083600160003373ffffffffffffffffffffffffffffffffffffffff1673ffffffffffffffffffffffffffffffffffffffff16815260200190815260200160002060000160008282546104fd91906121bf565b925050819055508360008082825461051591906121f3565b925050819055507fd8eee839117c5738e7e307646d6a4503ba5a27738370b5a27a0ee2b200c7765033858560405161054f93929190612282565b60405180910390a150505050565b600081116105a0576040517f08c379a000000000000000000000000000000000000000000000000000000000815260040161059790612318565b60405180910390fd5b6000600160003373ffffffffffffffffffffffffffffffffffffffff1673ffffffffffffffffffffffffffffffffffffffff1681526020019081526020016000206000015403610625576040517f08c379a000000000000000000000000000000000000000000000000000000000815260040161061c90612384565b60405180910390fd5b603c600160003373ffffffffffffffffffffffffffffffffffffffff1673ffffffffffffffffffffffffffffffffffffffff168152602001908152602001600020600101544261067591906121f3565b116106b5576040517f08c379a00000000000000000000000000000000000000000000000000000000081526004016106ac90612416565b60405180910390fd5b600160003373ffffffffffffffffffffffffffffffffffffffff1673ffffffffffffffffffffffffffffffffffffffff1681526020019081526020016000206000015481111561070457600080fd5b80600160003373ffffffffffffffffffffffffffffffffffffffff1673ffffffffffffffffffffffffffffffffffffffff168152602001908152602001600020600001600082825461075691906121f3565b925050819055503373ffffffffffffffffffffffffffffffffffffffff166108fc829081150290604051600060405180830381858888f193505050501580156107a3573d6000803e3d6000fd5b507f22efff027d211a482d0ead24fca8715139a94fb5c85b4604dcb3f3df332facb333826040516107d5929190612482565b60405180910390a150565b600047905090565b6107f3338383611668565b506000600c9050600061080782858561179b565b90506040518060400160405280600381526020017f4361720000000000000000000000000000000000000000000000000000000000815250600260405161084d9061250a565b908152602001604051809103902060003373ffffffffffffffffffffffffffffffffffffffff1673ffffffffffffffffffffffffffffffffffffffff16815260200190815260200160002060000190816108a791906120be565b508060026040516108b79061250a565b908152602001604051809103902060003373ffffffffffffffffffffffffffffffffffffffff1673ffffffffffffffffffffffffffffffffffffffff168152602001908152602001600020600301600082825461091491906121bf565b9250508190555082600260405161092a9061250a565b908152602001604051809103902060003373ffffffffffffffffffffffffffffffffffffffff1673ffffffffffffffffffffffffffffffffffffffff168152602001908152602001600020600201600082825461098791906121bf565b9250508190555083600260405161099d9061250a565b908152602001604051809103902060003373ffffffffffffffffffffffffffffffffffffffff1673ffffffffffffffffffffffffffffffffffffffff16815260200190815260200160002060010160008282546109fa91906121bf565b9250508190555083600160003373ffffffffffffffffffffffffffffffffffffffff1673ffffffffffffffffffffffffffffffffffffffff1681526020019081526020016000206000016000828254610a5391906121bf565b9250508190555083600080828254610a6b91906121f3565b925050819055507f11edf0146ca6e5e8c3e8be9354dbf4fc478507648f8a692c6b08f7d50c96f89e338585604051610aa59392919061256b565b60405180910390a150505050565b610abe338383611668565b506000601090506000610ad282858561179b565b90506040518060400160405280600481526020017f486f6d65000000000000000000000000000000000000000000000000000000008152506002604051610b1890612601565b908152602001604051809103902060003373ffffffffffffffffffffffffffffffffffffffff1673ffffffffffffffffffffffffffffffffffffffff1681526020019081526020016000206000019081610b7291906120be565b50806002604051610b8290612601565b908152602001604051809103902060003373ffffffffffffffffffffffffffffffffffffffff1673ffffffffffffffffffffffffffffffffffffffff1681526020019081526020016000206003016000828254610bdf91906121bf565b92505081905550826002604051610bf590612601565b908152602001604051809103902060003373ffffffffffffffffffffffffffffffffffffffff1673ffffffffffffffffffffffffffffffffffffffff1681526020019081526020016000206002016000828254610c5291906121bf565b92505081905550836002604051610c6890612601565b908152602001604051809103902060003373ffffffffffffffffffffffffffffffffffffffff1673ffffffffffffffffffffffffffffffffffffffff1681526020019081526020016000206001016000828254610cc591906121bf565b9250508190555083600160003373ffffffffffffffffffffffffffffffffffffffff1673ffffffffffffffffffffffffffffffffffffffff1681526020019081526020016000206000016000828254610d1e91906121bf565b9250508190555083600080828254610d3691906121f3565b925050819055507f2cfdeffc4a4d732916a5a326810c043d0be4a1b4e21e7f8af7282ff45c5ed66f338585604051610d7093929190612662565b60405180910390a150505050565b60016020528060005260406000206000915090508060000154908060010154905082565b60005481565b60606000806000806040518060400160405280600381526020017f43617200000000000000000000000000000000000000000000000000000000008152509050610df28133611838565b94509450945094505090919293565b60606000806000806040518060400160405280600481526020017f486f6d65000000000000000000000000000000000000000000000000000000008152509050610e4b8133611838565b94509450945094505090919293565b60003411610e9d576040517f08c379a0000000000000000000000000000000000000000000000000000000008152600401610e94906126f8565b60405180910390fd5b34600080828254610eae91906121bf565b92505081905550565b60003411610efa576040517f08c379a0000000000000000000000000000000000000000000000000000000008152600401610ef1906126f8565b60405180910390fd5b34600160003373ffffffffffffffffffffffffffffffffffffffff1673ffffffffffffffffffffffffffffffffffffffff1681526020019081526020016000206000016000828254610f4c91906121bf565b9250508190555042600160003373ffffffffffffffffffffffffffffffffffffffff1673ffffffffffffffffffffffffffffffffffffffff168152602001908152602001600020600101819055507f5752e81d3f840ed15d83846a26d47f1e7a1bf6fae1fa33acba2dec16780e68713334604051610fcb929190612764565b60405180910390a1565b60606000806000806040518060400160405280600881526020017f506572736f6e616c000000000000000000000000000000000000000000000000815250905061101f8133611838565b94509450945094505090919293565b60405160200161103d906127c3565b604051602081830303815290604052805190602001208160405160200161106491906127e3565b6040516020818303038152906040528051906020012014806110cf575060405160200161109090612828565b60405160208183030381529060405280519060200120816040516020016110b791906127e3565b60405160208183030381529060405280519060200120145b8061112357506040516020016110e49061286b565b604051602081830303815290604052805190602001208160405160200161110b91906127e3565b60405160208183030381529060405280519060200120145b611162576040517f08c379a0000000000000000000000000000000000000000000000000000000008152600401611159906128fd565b60405180910390fd5b6000600282604051611174919061294e565b908152602001604051809103902060003373ffffffffffffffffffffffffffffffffffffffff1673ffffffffffffffffffffffffffffffffffffffff1681526020019081526020016000206002015403611203576040517f08c379a00000000000000000000000000000000000000000000000000000000081526004016111fa906129b1565b60405180910390fd5b600281604051611213919061294e565b908152602001604051809103902060003373ffffffffffffffffffffffffffffffffffffffff1673ffffffffffffffffffffffffffffffffffffffff1681526020019081526020016000206003015434146112a3576040517f08c379a000000000000000000000000000000000000000000000000000000000815260040161129a90612a1d565b60405180910390fd5b62278d006002826040516112b7919061294e565b908152602001604051809103902060003373ffffffffffffffffffffffffffffffffffffffff1673ffffffffffffffffffffffffffffffffffffffff168152602001908152602001600020600401544261131191906121f3565b11611351576040517f08c379a000000000000000000000000000000000000000000000000000000000815260040161134890612aaf565b60405180910390fd5b600281604051611361919061294e565b908152602001604051809103902060003373ffffffffffffffffffffffffffffffffffffffff1673ffffffffffffffffffffffffffffffffffffffff16815260200190815260200160002060030154600160003373ffffffffffffffffffffffffffffffffffffffff1673ffffffffffffffffffffffffffffffffffffffff168152602001908152602001600020600001600082825461140191906121f3565b92505081905550600160028260405161141a919061294e565b908152602001604051809103902060003373ffffffffffffffffffffffffffffffffffffffff1673ffffffffffffffffffffffffffffffffffffffff168152602001908152602001600020600201600082825461147791906121f3565b9250508190555060028160405161148e919061294e565b908152602001604051809103902060003373ffffffffffffffffffffffffffffffffffffffff1673ffffffffffffffffffffffffffffffffffffffff168152602001908152602001600020600301546002826040516114ed919061294e565b908152602001604051809103902060003373ffffffffffffffffffffffffffffffffffffffff1673ffffffffffffffffffffffffffffffffffffffff168152602001908152602001600020600101600082825461154a91906121f3565b9250508190555042600282604051611562919061294e565b908152602001604051809103902060003373ffffffffffffffffffffffffffffffffffffffff1673ffffffffffffffffffffffffffffffffffffffff168152602001908152602001600020600401819055506002816040516115c4919061294e565b908152602001604051809103902060003373ffffffffffffffffffffffffffffffffffffffff1673ffffffffffffffffffffffffffffffffffffffff1681526020019081526020016000206003015460008082825461162391906121bf565b925050819055507f8db1b7194c3e18eac06d46922e4732b787a3924d723613887c081ac8def42a3533823460405161165d93929190612b1b565b60405180910390a150565b600080600160008673ffffffffffffffffffffffffffffffffffffffff1673ffffffffffffffffffffffffffffffffffffffff16815260200190815260200160002060000154036116ee576040517f08c379a00000000000000000000000000000000000000000000000000000000081526004016116e590612384565b60405180910390fd5b600054831115801561170257506103e88310155b611741576040517f08c379a000000000000000000000000000000000000000000000000000000000815260040161173890612bde565b60405180910390fd5b6001821180156117515750607882105b611790576040517f08c379a000000000000000000000000000000000000000000000000000000000815260040161178790612c4a565b60405180910390fd5b600190509392505050565b6000806104b0905060006001848388856117b591906121bf565b6117bf9190612c99565b186117ca91906121f3565b848388856117d891906121bf565b6117e29190612c99565b188388886117f09190612cca565b6117fa9190612c99565b6118049190612cca565b61180e9190612c99565b9050600084868361181f91906121bf565b6118299190612c99565b90508093505050509392505050565b6060600080600060028660405161184f919061294e565b908152602001604051809103902060008673ffffffffffffffffffffffffffffffffffffffff1673ffffffffffffffffffffffffffffffffffffffff1681526020019081526020016000206000016002876040516118ad919061294e565b908152602001604051809103902060008773ffffffffffffffffffffffffffffffffffffffff1673ffffffffffffffffffffffffffffffffffffffff1681526020019081526020016000206001015460028860405161190c919061294e565b908152602001604051809103902060008873ffffffffffffffffffffffffffffffffffffffff1673ffffffffffffffffffffffffffffffffffffffff1681526020019081526020016000206002015460028960405161196b919061294e565b908152602001604051809103902060008973ffffffffffffffffffffffffffffffffffffffff1673ffffffffffffffffffffffffffffffffffffffff168152602001908152602001600020600301548380546119c690611ee1565b80601f01602080910402602001604051908101604052809291908181526020018280546119f290611ee1565b8015611a3f5780601f10611a1457610100808354040283529160200191611a3f565b820191906000526020600020905b815481529060010190602001808311611a2257829003601f168201915b50505050509350935093509350935092959194509250565b6000604051905090565b600080fd5b600080fd5b6000819050919050565b611a7e81611a6b565b8114611a8957600080fd5b50565b600081359050611a9b81611a75565b92915050565b60008060408385031215611ab857611ab7611a61565b5b6000611ac685828601611a8c565b9250506020611ad785828601611a8c565b9150509250929050565b600060208284031215611af757611af6611a61565b5b6000611b0584828501611a8c565b91505092915050565b611b1781611a6b565b82525050565b6000602082019050611b326000830184611b0e565b92915050565b600073ffffffffffffffffffffffffffffffffffffffff82169050919050565b6000611b6382611b38565b9050919050565b611b7381611b58565b8114611b7e57600080fd5b50565b600081359050611b9081611b6a565b92915050565b600060208284031215611bac57611bab611a61565b5b6000611bba84828501611b81565b91505092915050565b6000604082019050611bd86000830185611b0e565b611be56020830184611b0e565b9392505050565b600081519050919050565b600082825260208201905092915050565b60005b83811015611c26578082015181840152602081019050611c0b565b60008484015250505050565b6000601f19601f8301169050919050565b6000611c4e82611bec565b611c588185611bf7565b9350611c68818560208601611c08565b611c7181611c32565b840191505092915050565b60006080820190508181036000830152611c968187611c43565b9050611ca56020830186611b0e565b611cb26040830185611b0e565b611cbf6060830184611b0e565b95945050505050565b600080fd5b600080fd5b7f4e487b7100000000000000000000000000000000000000000000000000000000600052604160045260246000fd5b611d0a82611c32565b810181811067ffffffffffffffff82111715611d2957611d28611cd2565b5b80604052505050565b6000611d3c611a57565b9050611d488282611d01565b919050565b600067ffffffffffffffff821115611d6857611d67611cd2565b5b611d7182611c32565b9050602081019050919050565b82818337600083830152505050565b6000611da0611d9b84611d4d565b611d32565b905082815260208101848484011115611dbc57611dbb611ccd565b5b611dc7848285611d7e565b509392505050565b600082601f830112611de457611de3611cc8565b5b8135611df4848260208601611d8d565b91505092915050565b600060208284031215611e1357611e12611a61565b5b600082013567ffffffffffffffff811115611e3157611e30611a66565b5b611e3d84828501611dcf565b91505092915050565b600081905092915050565b7f506572736f6e616c000000000000000000000000000000000000000000000000600082015250565b6000611e87600883611e46565b9150611e9282611e51565b600882019050919050565b6000611ea882611e7a565b9150819050919050565b7f4e487b7100000000000000000000000000000000000000000000000000000000600052602260045260246000fd5b60006002820490506001821680611ef957607f821691505b602082108103611f0c57611f0b611eb2565b5b50919050565b60008190508160005260206000209050919050565b60006020601f8301049050919050565b600082821b905092915050565b600060088302611f747fffffffffffffffffffffffffffffffffffffffffffffffffffffffffffffffff82611f37565b611f7e8683611f37565b95508019841693508086168417925050509392505050565b6000819050919050565b6000611fbb611fb6611fb184611a6b565b611f96565b611a6b565b9050919050565b6000819050919050565b611fd583611fa0565b611fe9611fe182611fc2565b848454611f44565b825550505050565b600090565b611ffe611ff1565b612009818484611fcc565b505050565b5b8181101561202d57612022600082611ff6565b60018101905061200f565b5050565b601f8211156120725761204381611f12565b61204c84611f27565b8101602085101561205b578190505b61206f61206785611f27565b83018261200e565b50505b505050565b600082821c905092915050565b600061209560001984600802612077565b1980831691505092915050565b60006120ae8383612084565b9150826002028217905092915050565b6120c782611bec565b67ffffffffffffffff8111156120e0576120df611cd2565b5b6120ea8254611ee1565b6120f5828285612031565b600060209050601f8311600181146121285760008415612116578287015190505b61212085826120a2565b865550612188565b601f19841661213686611f12565b60005b8281101561215e57848901518255600182019150602085019450602081019050612139565b8683101561217b5784890151612177601f891682612084565b8355505b6001600288020188555050505b505050505050565b7f4e487b7100000000000000000000000000000000000000000000000000000000600052601160045260246000fd5b60006121ca82611a6b565b91506121d583611a6b565b92508282019050808211156121ed576121ec612190565b5b92915050565b60006121fe82611a6b565b915061220983611a6b565b925082820390508181111561222157612220612190565b5b92915050565b61223081611b58565b82525050565b7f68617320676f7420706572736f6e616c206c6f616e206f660000000000000000600082015250565b600061226c601883611bf7565b915061227782612236565b602082019050919050565b60006080820190506122976000830186612227565b81810360208301526122a88161225f565b90506122b76040830185611b0e565b6122c46060830184611b0e565b949350505050565b7f506c7a7a20776974686472617720736f6d6520616d6f756e7400000000000000600082015250565b6000612302601983611bf7565b915061230d826122cc565b602082019050919050565b60006020820190508181036000830152612331816122f5565b9050919050565b7f4e6f206461746120657869737400000000000000000000000000000000000000600082015250565b600061236e600d83611bf7565b915061237982612338565b602082019050919050565b6000602082019050818103600083015261239d81612361565b9050919050565b7f4e65656420746f20776169742031206d696e75746573206265666f726520776960008201527f7468647261770000000000000000000000000000000000000000000000000000602082015250565b6000612400602683611bf7565b915061240b826123a4565b604082019050919050565b6000602082019050818103600083015261242f816123f3565b9050919050565b7f6861732077697468647261776e00000000000000000000000000000000000000600082015250565b600061246c600d83611bf7565b915061247782612436565b602082019050919050565b60006060820190506124976000830185612227565b81810360208301526124a88161245f565b90506124b76040830184611b0e565b9392505050565b7f4361720000000000000000000000000000000000000000000000000000000000600082015250565b60006124f4600383611e46565b91506124ff826124be565b600382019050919050565b6000612515826124e7565b9150819050919050565b7f68617320676f7420636172206c6f616e206f6600000000000000000000000000600082015250565b6000612555601383611bf7565b91506125608261251f565b602082019050919050565b60006080820190506125806000830186612227565b818103602083015261259181612548565b90506125a06040830185611b0e565b6125ad6060830184611b0e565b949350505050565b7f486f6d6500000000000000000000000000000000000000000000000000000000600082015250565b60006125eb600483611e46565b91506125f6826125b5565b600482019050919050565b600061260c826125de565b9150819050919050565b7f68617320676f7420686f6d65206c6f616e206f66000000000000000000000000600082015250565b600061264c601483611bf7565b915061265782612616565b602082019050919050565b60006080820190506126776000830186612227565b81810360208301526126888161263f565b90506126976040830185611b0e565b6126a46060830184611b0e565b949350505050565b7f506c7a7a206465706f7369746520736f6d6520616d6f756e7400000000000000600082015250565b60006126e2601983611bf7565b91506126ed826126ac565b602082019050919050565b60006020820190508181036000830152612711816126d5565b9050919050565b7f686173206465706f736974656400000000000000000000000000000000000000600082015250565b600061274e600d83611bf7565b915061275982612718565b602082019050919050565b60006060820190506127796000830185612227565b818103602083015261278a81612741565b90506127996040830184611b0e565b9392505050565b60006127ad600383611bf7565b91506127b8826124be565b602082019050919050565b600060208201905081810360008301526127dc816127a0565b9050919050565b600060208201905081810360008301526127fd8184611c43565b905092915050565b6000612812600483611bf7565b915061281d826125b5565b602082019050919050565b6000602082019050818103600083015261284181612805565b9050919050565b6000612855600883611bf7565b915061286082611e51565b602082019050919050565b6000602082019050818103600083015261288481612848565b9050919050565b7f706c6561736520656e7465722076616c6964206c6f616e207479706520692e6560008201527f20436172206f7220506572736f6e616c206f7220486f6d650000000000000000602082015250565b60006128e7603883611bf7565b91506128f28261288b565b604082019050919050565b60006020820190508181036000830152612916816128da565b9050919050565b600061292882611bec565b6129328185611e46565b9350612942818560208601611c08565b80840191505092915050565b600061295a828461291d565b915081905092915050565b7f4e6f20454d492070656e64696e67000000000000000000000000000000000000600082015250565b600061299b600e83611bf7565b91506129a682612965565b602082019050919050565b600060208201905081810360008301526129ca8161298e565b9050919050565b7f506c656173652073656e642076616c696420616d6f756e74206f6620456d6900600082015250565b6000612a07601f83611bf7565b9150612a12826129d1565b602082019050919050565b60006020820190508181036000830152612a36816129fa565b9050919050565b7f4e65656420746f20776169742031206d6f6e746820616674657220706179696e60008201527f67206c61737420454d4900000000000000000000000000000000000000000000602082015250565b6000612a99602a83611bf7565b9150612aa482612a3d565b604082019050919050565b60006020820190508181036000830152612ac881612a8c565b9050919050565b7f68617320706169642068697320656d69206f6600000000000000000000000000600082015250565b6000612b05601383611bf7565b9150612b1082612acf565b602082019050919050565b6000608082019050612b306000830186612227565b8181036020830152612b4181612af8565b90508181036040830152612b558185611c43565b9050612b646060830184611b0e565b949350505050565b7f416d6f756e742073686f756c642062652067726561746572207468616e20313060008201527f303020616e64206c657373207468656e206c6f616e204c696d69740000000000602082015250565b6000612bc8603b83611bf7565b9150612bd382612b6c565b604082019050919050565b60006020820190508181036000830152612bf781612bbb565b9050919050565b7f74696d652073686f756c6420626520696e2072616e6765203120746f20313230600082015250565b6000612c34602083611bf7565b9150612c3f82612bfe565b602082019050919050565b60006020820190508181036000830152612c6381612c27565b9050919050565b7f4e487b7100000000000000000000000000000000000000000000000000000000600052601260045260246000fd5b6000612ca482611a6b565b9150612caf83611a6b565b925082612cbf57612cbe612c6a565b5b828204905092915050565b6000612cd582611a6b565b9150612ce083611a6b565b9250828202612cee81611a6b565b91508282048414831517612d0557612d04612190565b5b509291505056fea264697066735822122021b65e8968befc99abcdbf9e8752143588c9e2b09616869010ba55b74fe3942164736f6c63430008130033",
  "linkReferences": {},
  "deployedLinkReferences": {}
}