{
  "_format": "hh-sol-artifact-1",
  "contractName": "Token",
  "sourceName": "contracts/Token.sol",
  "abi": [
    {
      "inputs": [
        {
          "internalType": "address",
          "name": "",
          "type": "address"
        }
      ],
      "name": "balance",
      "outputs": [
        {
          "internalType": "uint256",
          "name": "",
          "type": "uint256"
        }
      ],
      "stateMutability": "view",
      "type": "function"
    },
    {
      "inputs": [],
      "name": "deposit",
      "outputs": [],
      "stateMutability": "payable",
      "type": "function"
    },
    {
      "inputs": [],
      "name": "reentrancyLock",
      "outputs": [
        {
          "internalType": "bool",
          "name": "",
          "type": "bool"
        }
      ],
      "stateMutability": "view",
      "type": "function"
    },
    {
      "inputs": [],
      "name": "withdraw",
      "outputs": [],
      "stateMutability": "payable",
      "type": "function"
    }
  ],
  "bytecode": "0x608060405234801561001057600080fd5b50610441806100206000396000f3fe60806040526004361061003f5760003560e01c80632446d79f146100445780633ccfd60b1461006f578063d0e30db014610079578063e3d670d714610083575b600080fd5b34801561005057600080fd5b506100596100c0565b6040516100669190610295565b60405180910390f35b6100776100d3565b005b6100816101bc565b005b34801561008f57600080fd5b506100aa60048036038101906100a59190610313565b610262565b6040516100b79190610359565b60405180910390f35b600160009054906101000a900460ff1681565b346000803373ffffffffffffffffffffffffffffffffffffffff1673ffffffffffffffffffffffffffffffffffffffff16815260200190815260200160002054101561011e57600080fd5b3373ffffffffffffffffffffffffffffffffffffffff166108fc349081150290604051600060405180830381858888f19350505050158015610164573d6000803e3d6000fd5b50346000803373ffffffffffffffffffffffffffffffffffffffff1673ffffffffffffffffffffffffffffffffffffffff16815260200190815260200160002060008282546101b391906103a3565b92505081905550565b600160009054906101000a900460ff16156101d657600080fd5b60018060006101000a81548160ff021916908315150217905550346000803373ffffffffffffffffffffffffffffffffffffffff1673ffffffffffffffffffffffffffffffffffffffff168152602001908152602001600020600082825461023e91906103d7565b925050819055506000600160006101000a81548160ff021916908315150217905550565b60006020528060005260406000206000915090505481565b60008115159050919050565b61028f8161027a565b82525050565b60006020820190506102aa6000830184610286565b92915050565b600080fd5b600073ffffffffffffffffffffffffffffffffffffffff82169050919050565b60006102e0826102b5565b9050919050565b6102f0816102d5565b81146102fb57600080fd5b50565b60008135905061030d816102e7565b92915050565b600060208284031215610329576103286102b0565b5b6000610337848285016102fe565b91505092915050565b6000819050919050565b61035381610340565b82525050565b600060208201905061036e600083018461034a565b92915050565b7f4e487b7100000000000000000000000000000000000000000000000000000000600052601160045260246000fd5b60006103ae82610340565b91506103b983610340565b92508282039050818111156103d1576103d0610374565b5b92915050565b60006103e282610340565b91506103ed83610340565b925082820190508082111561040557610404610374565b5b9291505056fea2646970667358221220eb055ffbfa92efbb97e2ece55e2c138288511ec743dff66efeb41f923c115a9f64736f6c63430008130033",
  "linkReferences": {},
  "deployedLinkReferences": {}
}